:100000000C9462000C948A000C948A000C948A0070
:100010000C948A000C948A000C948A000C948A0038
:100020000C948A000C948A000C948A000C948A0028
:100030000C948A000C948A000C948A000C948A0018
:100040000C94CE040C948A000C9486010C94D40178
:100050000C948A000C948A000C948A000C948A00F8
:100060000C948A000C948A000000000024002700F1
:100070002A0000000000250028002B0000000000DE
:1000800023002600290004040404040404040202DA
:100090000202020203030303030301020408102007
:1000A0004080010204081020010204081020000012
:1000B0000007000201000003040600000000000029
:1000C0000000400311241FBECFEFD8E0DEBFCDBF3C
:1000D00011E0A0E0B1E0E4E0FEE002C005900D9286
:1000E000A231B107D9F711E0A2E1B1E001C01D9240
:1000F000A53CB107E1F710E0C4ECD0E004C02297C2
:10010000FE010E94FC06C23CD107C9F70E9496037B
:100110000C9400070C940000EF92FF920F931F9332
:10012000DF93CF93CDB7DEB728970FB6F894DEBF35
:100130000FBECDBF8FE289838AE991E00E949602CB
:1001400018161906D4F400E010E07E010894E11CB2
:10015000F11C8AE991E00E94960218161906CCF764
:100160008AE991E00E94C702F701E00FF11F808346
:100170000F5F1F4F0830110561F78981823681F1C9
:10018000833624F4813609F0A6C007C0833609F40B
:1001900040C0843609F09FC05CC08B81482F552732
:1001A00047FD5095405350408A81992787FD90958F
:1001B000C0979C01E3E0220F331FEA95E1F7880F17
:1001C000991F280F391F420F531F8C81883619F44D
:1001D000842F61E002C0842F60E00E9412067BC081
:1001E0008B81992787FD9095C0972A81332727FD1A
:1001F000309520533040A90163E0440F551F6A95A4
:10020000E1F7220F331F420F531F840F0E9466062F
:1002100018C08B81992787FD9095C0972A81332735
:1002200027FD309520533040A90103E0440F551FAE
:100230000A95E1F7220F331F420F531F840F0E94CC
:100240005105BC018AE991E04AE050E00E94AF0408
:1002500042C08B81992787FD9095C0972A813327CB
:1002600027FD309520533040F901B3E0EE0FFF1F1A
:10027000BA95E1F7220F331FE20FF31F6E81772744
:1002800067FD7095605370402C81332727FD3095B2
:100290002053304044E650E0D901A49F9001A59F2F
:1002A000300DB49F300D1124620F731F2D81332741
:1002B00027FD309520533040A901F3E0440F551F2E
:1002C000FA95E1F7220F331F420F531F640F751F7A
:1002D0008E0F0E94730528960FB6F894DEBF0FBEEE
:1002E000CDBFCF91DF911F910F91FF90EF900895B7
:1002F0008DE061E00E94D3058AE991E040E855E293
:1003000060E070E00E940F02089508951F920F921E
:100310000FB60F9211242F933F934F938F939F9378
:10032000EF93FF938091C00082FD1DC04091C600F5
:1003300020915201309153012F5F3F4F2F73307046
:1003400080915401909155012817390771F0E0917F
:100350005201F0915301EE5EFE4F40833093530102
:100360002093520102C08091C600FF91EF919F91AE
:100370008F914F913F912F910F900FBE0F901F9033
:100380001895E091A601F091A701E05CFF4F8191E3
:10039000919120813181821B930B8F739070892BF7
:1003A00011F00E94850108951F920F920FB60F92CF
:1003B00011242F933F938F939F93EF93FF9320915B
:1003C0009601309197018091980190919901281799
:1003D000390731F48091C1008F7D8093C10014C032
:1003E000E0919801F0919901EA5AFE4F20818091A5
:1003F00098019091990101968F7390709093990153
:10040000809398012093C600FF91EF919F918F9167
:100410003F912F910F900FBE0F901F901895AF92A4
:10042000BF92DF92EF92FF920F931F93CF93DF93D0
:10043000EC017A018B01DD24403081EE580780E029
:10044000680780E0780711F0DD24D39491E0A92EAD
:10045000B12CEC89FD89DD2069F0C50108A002C03E
:10046000880F991F0A94E2F7808360E079E08DE3BA
:1004700090E005C0108260E874E88EE190E0A80189
:1004800097010E94D8062150304040405040569578
:1004900047953795279580E12030380720F0DD20FB
:1004A00011F0DD24D6CFE889F9893083EA89FB8908
:1004B000208319A2EE89FF89408121E030E0C90143
:1004C0000C8C02C0880F991F0A94E2F7482B4083D6
:1004D000EE89FF894081C9010D8C02C0880F991FE8
:1004E0000A94E2F7482B4083EE89FF894081C901D5
:1004F0000E8C02C0880F991F0A94E2F7482B4083A4
:10050000EE89FF8980810F8C02C0220F331F0A946D
:10051000E2F7209528232083DF91CF911F910F913F
:10052000FF90EF90DF90BF90AF900895DC011C9694
:10053000ED91FC911D97E05CFF4F219131918081FD
:100540009181281B390B2F733070C9010895DC018C
:100550001C96ED91FC911D97E05CFF4F208131814D
:10056000E054F040DF01AE5BBF4F8D919C9111973D
:100570002817390719F42FEF3FEF07C08D919C9191
:10058000E80FF91F8081282F30E0C9010895DC01B0
:100590001C96ED91FC911D97E05CFF4F208131810D
:1005A000E054F040DF01AE5BBF4F8D919C911197FD
:1005B0002817390719F42FEF3FEF10C08D919C9148
:1005C0001197E80FF91F20818D919C911197019649
:1005D0008F73907011969C938E9330E0C9010895AB
:1005E000DC0191968C919197882339F05496ED9186
:1005F000FC915597808186FFF9CF91961C920895C2
:10060000CF93DF93EC01EE85FF85E05CFF4F208107
:100610003181E054F0402F5F3F4F2F733070DF0186
:10062000AE5BBF4F8D919C91119728173907D1F37D
:10063000E05CFF4F80819181E054F040E80FF91FAA
:100640006083EE85FF85E05CFF4F31832083EE8978
:10065000FF89208181E090E00F8C02C0880F991FF4
:100660000A94E2F7282B208381E089A3EC89FD8995
:1006700080818064808381E090E0DF91CF91089554
:1006800010929D0110929C0188EE93E0A0E0B0E0F2
:1006900080939E0190939F01A093A001B093A1012C
:1006A00085E091E090939B0180939A0182E191E033
:1006B0009093A7018093A60186E591E09093A9010C
:1006C0008093A80185EC90E09093AB018093AA0100
:1006D00084EC90E09093AD018093AC0180EC90E0CD
:1006E0009093AF018093AE0181EC90E09093B101C3
:1006F0008093B00182EC90E09093B3018093B201BB
:1007000086EC90E09093B5018093B40184E08093EF
:10071000B60183E08093B70187E08093B80185E05C
:100720008093B90181E08093BA010895CF93DF935C
:100730000E9416050E947801C1ECD1E00E948C0055
:100740002097E1F30E94C101F9CFCF92DF92EF929F
:10075000FF920F931F93CF93DF937C016B018A016C
:10076000C0E0D0E00FC0D6016D916D01D701ED91D1
:10077000FC910190F081E02DC7010995C80FD91FA8
:10078000015010400115110571F7CE01DF91CF9195
:100790001F910F91FF90EF90DF90CF900895EF920F
:1007A000FF920F931F938C01DC01ED91FC9101905E
:1007B000F081E02D6DE009957C01D801ED91FC916F
:1007C0000190F081E02DC8016AE009959C012E0D91
:1007D0003F1DC9011F910F91FF90EF900895CF9396
:1007E000DF93EC016115710519F420E030E00FC0D2
:1007F000DB010D900020E9F71197A61BB70BE881EC
:10080000F9810280F381E02DAD0109959C01C901B8
:10081000DF91CF9108954F925F927F928F929F9236
:10082000AF92BF92CF92DF92EF92FF920F931F93FE
:10083000DF93CF93CDB7DEB7A1970FB6F894DEBFA5
:100840000FBECDBF2C01742ECB01223008F42AE05C
:1008500019A231E2C32ED12CCC0EDD1E822E99249A
:10086000AA24BB24672D752FA50194010E94D806E8
:1008700079018A01C801B701A50194010E94B90656
:10088000472D461B0894C108D1084A3014F4405D36
:1008900001C0495CF6014083E114F1040105110532
:1008A00021F07E2C5F2DC801DDCFC201B6010E9470
:1008B000EF03A1960FB6F894DEBF0FBECDBFCF9168
:1008C000DF911F910F91FF90EF90DF90CF90BF903D
:1008D000AF909F908F907F905F904F900895CF92B0
:1008E000DF92EF92FF920F931F93CF93DF93EC0170
:1008F0006A017B012115310541F4E881F9810190FC
:10090000F081E02D642F09951FC02A303105D1F404
:1009100077FF17C0E881F9810190F081E02D6DE249
:1009200009958C0144275527BA014C195D096E09B8
:100930007F09CE012AE00E940B049801280F391F7D
:1009400004C02AE00E940B049C01C901DF91CF91F1
:100950001F910F91FF90EF90DF90CF900895CF926D
:10096000DF92EF92FF920F931F936C017B019A012C
:100970000027F7FC0095102FB801A7010E946F0413
:100980008C01C6010E94CF03080F191FC8011F91D7
:100990000F91FF90EF90DF90CF9008951F920F92EC
:1009A0000FB60F9211242F933F938F939F93AF9382
:1009B000BF938091C0019091C101A091C201B091FB
:1009C000C3013091C4010196A11DB11D232F2D5FDC
:1009D0002D3720F02D570196A11DB11D2093C40184
:1009E0008093C0019093C101A093C201B093C30151
:1009F0008091BC019091BD01A091BE01B091BF0159
:100A00000196A11DB11D8093BC019093BD01A093DF
:100A1000BE01B093BF01BF91AF919F918F913F9164
:100A20002F910F900FBE0F901F901895789484B55A
:100A3000826084BD84B5816084BD85B5826085BDDA
:100A400085B5816085BDEEE6F0E0808181608083C0
:100A5000E1E8F0E0108280818260808380818160A3
:100A60008083E0E8F0E0808181608083E1EBF0E06A
:100A7000808184608083E0EBF0E08081816080830E
:100A8000EAE7F0E0808184608083808182608083F7
:100A90008081816080838081806880831092C10022
:100AA0000895982F8E3008F09E5097708091000125
:100AB0008295880F880F807C892B80937C008091A1
:100AC0007A00806480937A0080917A0086FDFCCF62
:100AD0002091780040917900942F80E030E0282B1D
:100AE000392BC90108951F93CF93DF93182FEB0182
:100AF00061E00E94D305209709F44AC0CF3FD10599
:100B000009F449C0E12FF0E0E255FF4F84918330B2
:100B1000C1F0843028F4813051F08230B1F50CC03E
:100B2000863019F1873049F1843079F514C084B5E5
:100B3000806884BDC7BD33C084B5806284BDC8BD34
:100B40002EC080918000806880938000D0938900BF
:100B5000C093880024C080918000806280938000D0
:100B6000D0938B00C0938A001AC08091B000806837
:100B70008093B000C093B30012C08091B000806237
:100B80008093B000C093B4000AC0C038D1051CF4F3
:100B9000812F60E002C0812F61E00E941206DF9188
:100BA000CF911F910895CF93DF93482F50E0CA0152
:100BB00086569F4FFC0134914A575F4FFA0184914A
:100BC000882369F190E0880F991FFC01E859FF4FD5
:100BD000A591B491FC01EE58FF4FC591D4916623C5
:100BE00051F42FB7F8948C91932F909589238C937F
:100BF000888189230BC0623061F42FB7F8948C91FF
:100C0000932F909589238C938881832B88832FBF82
:100C100006C09FB7F8948C91832B8C939FBFDF9174
:100C2000CF910895482F50E0CA0182559F4FFC0193
:100C30002491CA0186569F4FFC0194914A575F4FF9
:100C4000FA013491332309F440C0222351F12330B7
:100C500071F0243028F42130A1F0223011F514C0B5
:100C60002630B1F02730C1F02430D9F404C080918F
:100C700080008F7703C0809180008F7D80938000FB
:100C800010C084B58F7702C084B58F7D84BD09C044
:100C90008091B0008F7703C08091B0008F7D8093EA
:100CA000B000E32FF0E0EE0FFF1FEE58FF4FA591CD
:100CB000B4912FB7F894662321F48C9190958923F1
:100CC00002C08C91892B8C932FBF0895682F70E000
:100CD000CB0182559F4FFC012491CB0186569F4F3B
:100CE000FC0144916A577F4FFB019491992319F4B9
:100CF00020E030E03CC0222351F1233071F0243059
:100D000028F42130A1F0223011F514C02630B1F0C2
:100D10002730C1F02430D9F404C0809180008F774F
:100D200003C0809180008F7D8093800010C084B5C7
:100D30008F7702C084B58F7D84BD09C08091B000DB
:100D40008F7703C08091B0008F7D8093B000892F92
:100D500090E0880F991F84589F4FFC01A591B49192
:100D60008C9120E030E0842311F021E030E0C901D3
:100D70000895629FD001739FF001829FE00DF11DE5
:100D8000649FE00DF11D929FF00D839FF00D749F05
:100D9000F00D659FF00D9927729FB00DE11DF91FB1
:100DA000639FB00DE11DF91FBD01CF01112408950E
:100DB000A1E21A2EAA1BBB1BFD010DC0AA1FBB1F5F
:100DC000EE1FFF1FA217B307E407F50720F0A21BD1
:100DD000B30BE40BF50B661F771F881F991F1A943E
:100DE00069F760957095809590959B01AC01BD0168
:100DF000CF010895EE0FFF1F0590F491E02D0994A7
:040E0000F894FFCF94
:100E040001000000000003A5039602C702A702F038
:020E14000200DA
:00000001FF
